:020000020000FC
:0200000033C00B
:020004006AC0D0
:1000680008E00EBF0FEF0DBF229A239A249A5298E8
:100078005A9A11E01DBB12E01093690078940E940F
:100088004600FDCF2A9A35E00E9459003A95E1F7DB
:100098002A982B9A0E9459002B982C9A25E00E94A6
:1000A80059002A95E1F72C9808954DE6409385006C
:1000B80044E84093840044274093800044E0409300
:1000C8008100B09BFECF44274093810041E046BBAE
:1000D8000895002705B92B9A4CE350E56AEF000014
:1000E80000006A95E1F75A95C9F74A95B1F72B9838
:0400F8002C9A189591
:00000001FF
